{
  "contractName": "Hackathoncontract",
  "abi": [
    {
      "constant": true,
      "inputs": [
        {
          "name": "",
          "type": "bytes32"
        }
      ],
      "name": "bounty_map",
      "outputs": [
        {
          "name": "",
          "type": "uint256"
        }
      ],
      "payable": false,
      "stateMutability": "view",
      "type": "function"
    },
    {
      "constant": true,
      "inputs": [],
      "name": "owner",
      "outputs": [
        {
          "name": "",
          "type": "address"
        }
      ],
      "payable": false,
      "stateMutability": "view",
      "type": "function"
    },
    {
      "constant": true,
      "inputs": [
        {
          "name": "",
          "type": "bytes32"
        }
      ],
      "name": "minimum_rep_map",
      "outputs": [
        {
          "name": "",
          "type": "uint256"
        }
      ],
      "payable": false,
      "stateMutability": "view",
      "type": "function"
    },
    {
      "constant": true,
      "inputs": [
        {
          "name": "",
          "type": "address"
        }
      ],
      "name": "user_rep_map",
      "outputs": [
        {
          "name": "",
          "type": "uint256"
        }
      ],
      "payable": false,
      "stateMutability": "view",
      "type": "function"
    },
    {
      "constant": true,
      "inputs": [
        {
          "name": "",
          "type": "bytes32"
        }
      ],
      "name": "payout_map",
      "outputs": [
        {
          "name": "",
          "type": "uint256"
        }
      ],
      "payable": false,
      "stateMutability": "view",
      "type": "function"
    },
    {
      "inputs": [],
      "payable": false,
      "stateMutability": "nonpayable",
      "type": "constructor"
    },
    {
      "constant": false,
      "inputs": [
        {
          "name": "_hash",
          "type": "bytes32"
        },
        {
          "name": "_payout",
          "type": "uint256"
        },
        {
          "name": "min_rep",
          "type": "uint256"
        }
      ],
      "name": "create_bounty",
      "outputs": [
        {
          "name": "success",
          "type": "bool"
        }
      ],
      "payable": true,
      "stateMutability": "payable",
      "type": "function"
    },
    {
      "constant": false,
      "inputs": [
        {
          "name": "_hash",
          "type": "bytes32"
        }
      ],
      "name": "claim_bounty_immediate",
      "outputs": [
        {
          "name": "success",
          "type": "bool"
        }
      ],
      "payable": false,
      "stateMutability": "nonpayable",
      "type": "function"
    }
  ],
  "bytecode": "0x608060405234801561001057600080fd5b50336000806101000a81548173ffffffffffffffffffffffffffffffffffffffff021916908373ffffffffffffffffffffffffffffffffffffffff160217905550610632806100606000396000f300608060405260043610610083576000357c0100000000000000000000000000000000000000000000000000000000900463ffffffff16806302f04f68146100885780637ebb32e6146100cd5780638da5cb5b146101165780638f3d45811461016d578063b49384ac146101b2578063f73ffbf714610209578063f763111e14610259575b600080fd5b34801561009457600080fd5b506100b7600480360381019080803560001916906020019092919050505061029e565b6040518082815260200191505060405180910390f35b3480156100d957600080fd5b506100fc60048036038101908080356000191690602001909291905050506102b6565b604051808215151515815260200191505060405180910390f35b34801561012257600080fd5b5061012b6104c6565b604051808273ffffffffffffffffffffffffffffffffffffffff1673ffffffffffffffffffffffffffffffffffffffff16815260200191505060405180910390f35b34801561017957600080fd5b5061019c60048036038101908080356000191690602001909291905050506104eb565b6040518082815260200191505060405180910390f35b3480156101be57600080fd5b506101f3600480360381019080803573ffffffffffffffffffffffffffffffffffffffff169060200190929190505050610503565b6040518082815260200191505060405180910390f35b61023f6004803603810190808035600019169060200190929190803590602001909291908035906020019092919050505061051b565b604051808215151515815260200191505060405180910390f35b34801561026557600080fd5b5061028860048036038101908080356000191690602001909291905050506105ac565b6040518082815260200191505060405180910390f35b60016020528060005260406000206000915090505481565b600060036000836000191660001916815260200190815260200160002054600460003373ffffffffffffffffffffffffffffffffffffffff1673ffffffffffffffffffffffffffffffffffffffff168152602001908152602001600020541015151561031e57fe5b60001515600560003373ffffffffffffffffffffffffffffffffffffffff1673ffffffffffffffffffffffffffffffffffffffff1681526020019081526020016000206000846000191660001916815260200190815260200160002060009054906101000a900460ff16151514151561039357fe5b60011515600560003373ffffffffffffffffffffffffffffffffffffffff1673ffffffffffffffffffffffffffffffffffffffff1681526020019081526020016000206000846000191660001916815260200190815260200160002060009054906101000a9050505061043c60016000846000191660001916815260200190815260200160002054600260008560001916600019168152602001908152602001600020546105c4565b600160008460001916600019168152602001908152602001600020819055503373ffffffffffffffffffffffffffffffffffffffff166108fc600260008560001916600019168152602001908152602001600020549081150290604051600060405180830381858888f193505050501580156104bc573d6000803e3d6000fd5b5060019050919050565b6000809054906101000a900473ffffffffffffffffffffffffffffffffffffffff1681565b60036020528060005260406000206000915090505481565b60046020528060005260406000206000915090505481565b600061054260016000866000191660001916815260200190815260200160002054346105ec565b6001600086600019166000191681526020019081526020016000208190555082600260008660001916600019168152602001908152602001600020819055508160036000866000191660001916815260200190815260200160002081905550600190509392505050565b60026020528060005260406000206000915090505481565b600080828403101580156105d9575082828403105b15156105e157fe5b818303905092915050565b6000828284011115156105fb57fe5b8183019050929150505600a165627a7a723058203a28c94aacd6f3f619cd4dd72af9337d4e6237765ebfc06b0c12a7f12484e77b0029",
  "source": "pragma solidity ^0.4.19;\n\ncontract Hackathoncontract {\n\n// store balances of bounty suppliers/providers\n    address public owner; //The 3IE.IO account\n\n    mapping (bytes32 => uint) public bounty_map;\n    mapping (bytes32 => uint) public payout_map;\n    mapping (bytes32 => uint) public minimum_rep_map;\n\n    mapping (address => uint) public user_rep_map;\n    mapping (address => mapping(bytes32 => bool)) has_used;\n\n    constructor() public {\n        owner = msg.sender;\n    }\n\n    function safe_add(uint x, uint y) internal pure returns (uint z) {\n        assert((x + y) > x);\n        return (x + y);\n    }\n\n    function safe_subtract(uint x, uint y) internal pure returns (uint z) {\n        assert ((x - y) >= 0 && (x - y) < x);\n        return (x - y);\n    }\n\n    function create_bounty(bytes32 _hash, uint _payout, uint min_rep) public payable returns (bool success) {\n        bounty_map[_hash] = safe_add(bounty_map[_hash], msg.value);\n        payout_map[_hash] = _payout;\n        minimum_rep_map[_hash] = min_rep;\n        return true;\n    }\n\n    function claim_bounty_immediate(bytes32 _hash) public returns (bool success) {\n        assert(user_rep_map[msg.sender] >= minimum_rep_map[_hash]);\n        assert(has_used[msg.sender][_hash] == false);\n        has_used[msg.sender][_hash] == true;\n        bounty_map[_hash] = safe_subtract(bounty_map[_hash], payout_map[_hash]);\n        msg.sender.transfer(payout_map[_hash]);\n        return true;\n    }\n\n/*\n    function claim_bounty_delayed(bytes32 _hash) public returns (bool success) {\n        bounty_map[_hash] = safe_subtract(bounty_map[_hash], payout_map[_hash]);\n        msg.sender.transfer(payout_map[_hash]);\n        return true;\n    }\n    */\n\n}",
  "sourcePath": "/home/michael/Documents/Ethereum/hack/Hedera18/Hedera18/contracts/Hackathoncontract.sol",
  "compiler": {
    "name": "solc",
    "version": "0.4.24+commit.e67f0147.Emscripten.clang"
  },
  "schemaVersion": "2.0.1",
  "updatedAt": "2018-10-15T17:34:36.591Z"
}